:100000000C9453200C9484200C9484200C94842011
:100010000C9484200C94E84C0C9484200C94044E92
:100020000C9484200C9484200C9484200C948420C0
:100030000C9484200C946BBB0C9484200C9484202E
:100040000C9484200C9484200C9484200C948420A0
:100050000C9484200C9442530C9484200C9484209F
:100060000C9484200C94A4530C9484200C9484202D
:100070000C9484200C9484200C9484200C94842070
:100080000C9484200C9484200C9484200C94842060
:100090000C9484200C9484200C9484200C946DB9CE
:1000A0000C9484200C9484200C9484200C94842040
:1000B0000C9484200C9484200C9484200C949EBA7C
:1000C0000C9484200C9484200C9484200C94842020
:1000D0000C9484200C9484200C9484200C94842010
:1000E0000C9484200C94195A0C94235A0C94F159B2
:1000F0000C94B8590C944F5A0C94455A0C94395A94
:100100000C942D5A0C9484200C9484200C948420FC
:100110000C9484200C9484200C9484200C948420CF
:100120000C9484200C9484200C9484200C948420BF
:100130000C948420A657B257BB57C057C5571C58BC
:10014000FB570258F358FC58FF58025909594659B1
:10015000235927593259F058F058F058F05835596A
:1001600038593B594059C16FE06F4B703271527131
:1001700072717A71277107634236B79BD8A71A3913
:10018000685618AEBAAB558C1D3CB7CC5763BD6DE5
:10019000EDFD753EF6177231BF000000803F08008C
:1001A0000000BE922449123EABAAAA2ABECDCCCCF6
:1001B0004C3E00000080BEABAAAAAA3E0000000090
:1001C000BF000000803F0000000000084178D3BB62
:1001D0004387D1133D190E3CC3BD4282AD2B3E680F
:1001E000EC8276BED98FE1A93E4C80EFFFBE01C400
:1001F000FF7F3F00000000000C94CE9E0C94275916
:100200000C94EB420C94A75F0C94E8430C94DC86AE
:100210000C94F7340C9494420C9427710C94527102
:100220000C9410440C944B930C948F790C94D39EA3
:100230000C9413B40C9431580C9445450C94BFAAFB
:100240000C94A32F0C9457B40C947C370C94F35853
:100250000C9433A60C946DC40C94C94B0C94A52D2E
:100260000C9408560C94C49E0C9440590C944A93D8
:100270000C94DE5B0C949D960C94F9B30C94465947
:100280000C94173A0C948DB40C949A9B0C940CB467
:100290000C9454940C943E300C9475B30C94FC580C
:1002A0000C9496570C947A710C9401450C944D4D16
:1002B0000C94D1540C94267B0C941B2E0C94394F27
:1002C0000C947C750C948A550C94D52D0C94C44DCB
:1002D0000C943B590C94EF560C94BE740C94FC2C6B
:1002E0000C945C4D0C94DF580C9422B40C94CB36D7
:1002F0000C9477A70C94E06F0C94FF580C94A62DE7
:100300000C947EAB0C9486200C94D2B30C944A4D82
:100310000C947FBF0C941D4F0C94C5570C9488A966
:100320000C94BAA70C946A5A0C94D62D0C9493553D
:100330000C94F6410C94C52D0C948A320C943859C7
:100340000C94B1420C9468930C9402590C94254F70
:100350000C94B4450C94D6A70C9449940C9474A7AF
:100360000C9408430C94484F0C94C1A70C946A4316
:100370000C94869A0C944B700C94B5BC0C949E9B78
:100380000C94A84C0C948B350C945E990C940959E0
:100390000C9494B50C94898F0C9449540C94EF935D
:1003A0000C94DC540C94A5930C948B440C943F4017
:1003B0000C94442F0C94CF330C94D7430C940772B5
:1003C0000C9432590C94C16F0C94415F0C94D54D30
:1003D0000C94D2450C94B84D0C9486B50C94FB7FCC
:1003E0000C94B2570C9463340C944FB30C941421B6
:1003F0000C943D8D0C9425430C94494F0C948854D7
:100400000C94794F0C941C580C94C0430C94824566
:100410000C9499A00C949F450C9444BC0C941F8E92
:100420000C94563E0C9402580C946B450C94214449
:100430000C9449500C9459AB0C94C7720C944243E1
:100440000C94A6570C94B02E0C9435590C9471B59D
:100450000C94ABB30C9489370C9477420C94DD9ECA
:100460000C942FA00C94AD2D0C94A2B30C947DABE6
:100470000C94F0580C94C0570C947A3D0C94773738
:100480000C94AC580C9472710C94E6940C94242146
:100490000C94CE420C94BD440C94B3400C947594CF
:1004A0000C9423590C94ED940C94A9430C94BCB374
:1004B0000C9451660C944B9F0C94FB570C94B88D84
:1004C0000C94CE2E0C94AAB50C944C540C94B92DCB
:1004D0000C9417300C94B94C0C945F2E0C94DDB333
:1004E0000C944D500C941F360C94EC530C9493B315
:1004F0000C9483AB0C94A4560C94763D0C94A42FCE
:100500000C94AD4C0C9462B30C9449440C94BB57BE
:100510000C942CA80C94C99E0C9492430C9478547F
:100520000C94327100407A10F35A00A0724E1809F0
:100530000010A5D4E80000E87648170000E40B544A
:10054000020000CA9A3B000000E1F5050000809619
:100550009800000040420F000000A086010000004B
:10056000102700000000E803000000006400000005
:1005700000000A00000000000100000000002C76CE
:10058000D888DC674F0823DFC1DFAE59E1B1B796E9
:10059000E5E3E453C63AE651997696E8E6C2842646
:1005A000EB898C9B62ED407C6FFCEFBC9C9F40F222
:1005B000BAA56FA5F490055A2AF75C936B6CF9679E
:1005C0006DC11BFCE0E40D47FEF520E6B500D0ED63
:1005D000902E0300943577050080841E08000020CB
:1005E0004E0A000000C80C333333330F986E128369
:1005F0001141EF8D2114893BE65516CFFEE6DB183D
:10060000D1844B381BF77C1D901DA4BBE424203201
:1006100084725E228100C9F124ECA1E53D2725000A
:10062000574F484E5A494D4D455200CB083206208F
:100630007E1B00000000070001000004110802F00A
:10064000090009060B01F010000D110D00F02C003F
:100650000B140D01EF480013121501F07300101177
:100660001101F0950004060601F098000616080135
:10067000F0A90006160801F0BA0009080900F0C345
:10068000000C0B0E01F4D40004070701FED800068D
:10069000030802F9DB0003030702FEDD0007110770
:1006A00000F0EC000B110D01F0040107110D02F038
:1006B00013010B110D01F02B010B110D01F0430182
:1006C0000D110D00F05F010C110D01F079010C11FD
:1006D0000D01F093010B110D01F0AB010B110D0198
:1006E000F0C3010B110D01F0DB01040D0802F4E26F
:1006F0000104110802F4EB010C0D0E01F2FF010CD4
:10070000080E01F40B020C0D0E01F21F020D110F69
:1007100001F03B0216171701F07B0211111100F0D6
:10072000A0020E111102F0BE020F111101F0DE0243
:100730000E111102F0FC020D111002F018030C1141
:100740000F02F0320310111301F054030E111102C5
:10075000F0720303110702F079030B110D00F09101
:10076000030F111102F0B1030C110F02F0CB0310B3
:10077000111402F0ED030D111102F009041111130F
:1007800001F02E040D111002F04A0411121301F0B1
:1007900071040F111102F091040E111001F0AF0459
:1007A0000D110F01F0CB040D111102F0E70410112F
:1007B0001000F0090517111700F03A05101110008C
:1007C000F05C0510111000F07E050E110F00F09C7A
:1007D0000506160802F0AD0507110700F0BC050676
:1007E000160800F0CD050C090E01F0DB050D030D18
:1007F0000003E00505040801F0E3050C0D0D01F40C
:10080000F7050C110F02F011060C0D0D01F4250671
:100810000C110F01F03F060B0D0D01F451060911EB
:100820000800F065060C120F01F480060B110F0290
:10083000F0980603110702F09F06061607FFF0B0B6
:10084000060B110D02F0C80603110702F0CF0613C4
:100850000D1501F4EE060B0D0F02F400070D0D0F40
:1008600001F416070C120F02F431070C120F01F4F9
:100870004C07080D0902F459070B0D0D01F46B0725
:1008800008110800F07C070B0D0F02F48E070D0D08
:100890000D00F4A407130D1300F4C3070D0D0D0094
:1008A000F4D9070D120D00F4F7070C0D0C00F40B32
:1008B0000808160901F0210803170702F02A0808A2
:1008C000160901F040080C050E01F6FFFFFFFE6659
:1008D0006660FFF0F3F9FCFE773B1C0E3073839CDF
:1008E00018EFFFFFFFFFE39C18E1C63FFFFFFFFF8C
:1008F00098E1C60E7073800403E1FE3FEF5DC9F915
:1009000003E07F07F83F82FE4FC9FD3BFF3FC3E096
:100910001002003C060FC1C39830738E0E7181CE59
:1009200070398C03F3803C60001CF0033F00E770DB
:1009300018C60718C0C3183877060FE1C0F00F803B
:100940001FE03FE03CF03C701CE01FE00F803F8068
:100950007BCEF1FCF0FCF078F0FC7FFF7FEE1F8493
:10096000FFFFE60C738E71C71CF38E38E3C71C7053
:10097000C38E1830C3871C30E38E3C71C71CF38EC6
:1009800038C71CE3001C04125FF1C1B1DC440F0046
:10099000F00F00F0FFFFFFFFF0F00F00F00F007707
:1009A000733640FFFFC0FF800E1830E1C3061C38CD
:1009B00060C3870C1870E01F07F1FF38EF1FE1FCE0
:1009C0003F07E0FC1F83F87F1EE39FF1FC1F00063A
:1009D0001C7BFFFDE3870E1C3870E1C3870E1F07E9
:1009E000F9FFF8FF0FC1C0380E03C0F03C0F03C081
:1009F000F03FFFFFFFE01F07F1FF78EE1E0383F0DB
:100A0000780FC03C03F07E0FE3DFF1FE1F0000E033
:100A10000F00F807C07E07F07F83BC39E3CF1C7955
:100A2000FFFFFFFFFC07803C01E03FE3FE3FE78064
:100A30007007F87FC7FEF1E00E00FE0FF0E71E7FA3
:100A4000E3FC1F000F03FC7FC79EF0EF00F78FFC55
:100A5000FFEF9EF0EF0FF0E78E7FE3FC0F00FFFF4C
:100A6000FFFF80F03C0701E0380F01C0780E01C0A5
:100A7000380701E03C001F07F9FF38FF0FE1DC7386
:100A8000FE1F8FFBC7F07E0FE3DFFBFE1F001F0F73
:100A9000F1FF78EE1FC1F87F8FFFEFFC7B807E1F98
:100AA000E39FF3FC1E00FFF0000000FFF0FFF000EA
:100AB0000000FFF326C000100F03F0FE7F0FC0F010
:100AC0000FC07F00FE03F00F0010FFFFFFFFF000DC
:100AD000000FFFFFFFFF800F00FC07F00FE03F005B
:100AE000F03F0FE7F0FC0F0080000F81FF1FFCE0DC
:100AF000EE07803C01C03E03E03E01C00E007000E6
:100B0000001C00E0070000FE001FFF00FFFE07C002
:100B10007C3CF3F9E7EEE73FF199E3C7E7070F3CC9
:100B20001C3CE071F38386CE0E3B3C79CC7FFE39D2
:100B3000FFF061CF81C000738003CFC03E1FFFF084
:100B40001FFF000FF00003E001F000F800EE007757
:100B5000003BC038E01C701E3C0E0E07FF87FFC331
:100B6000FFE3C079E01CE00FF00780FFE3FFCFFF59
:100B7000B81EE03B80EE07BFFCFFE3FFEE03F80F7B
:100B8000E03F80FFFFFFFEFFE007E03FF0FFF3E103
:100B9000F7818E003C007800F001E003C007800779
:100BA000818F87CFFF0FFC07E0FFC3FFCFFF381E09
:100BB000E03F80FE03F807E01F80FE03F80FE03FF0
:100BC00081EFFF3FFCFFC0FFF7FFBFFDC00E0070CD
:100BD00003801FFEFFF7FFB801C00E007003FFFF88
:100BE000FFFFF8FFFFFFFFFE00E00E00E00FFCFF3D
:100BF000CFFCE00E00E00E00E00E00E00007F01F6A
:100C0000FC3FFE3C1F780C7000F000F000F07FF01D
:100C10007FF07F700778073C1F3FFF1FFE03F0E067
:100C20003F80FE03F80FE03F80FE03FFFFFFFFFF62
:100C3000FE03F80FE03F80FE03F80FE03CFFFFFFEC
:100C4000FFFFFFE000E01C0380700E01C0380700CA
:100C5000E01C03F8770EE3DFF9FE1F00E03DC0F370
:100C600083C70F0E3C1CF83BE07FC0FFC1FF83E74A
:100C700087878E0F1C0F381F701EE03EE00E00E0CD
:100C80000E00E00E00E00E00E00E00E00E00E00EB0
:100C900000FFFFFFFFF0F81FF81FFC3FFC3FFC3F89
:100CA000FC3FEE77EE77EE77EE77E7E7E7E7E7E70B
:100CB000E7E7E3C7E3C7E3C7E03F81FE0FF07FC389
:100CC000FE1FB8FDE7E73F1DF8EFC3FE1FF07F836F
:100CD000FC0FE03807E00FFC0FFF8F83C780F78021
:100CE0003BC01FE00FF007F803FC01FE00E780F3B4
:100CF000E0F0FFF83FF807F000FFC7FF3FFDC1FE3F
:100D000007F03F81FC1FFFF7FF3FF1C00E007003AB
:100D1000801C00E00007F00FFE0FFF8F83E780F7D5
:100D2000803BC01FE00FF007F803FC01DE19E78FDE
:100D3000F3E3F0FFFC3FFF07F7800180FFE1FFF3E3
:100D4000FFE701EE03DC07B81F7FFCFFF1FF838F95
:100D5000870F8E0F1C0F381F701EE01E0FC0FFC7BD
:100D6000FF9C1EF039E007F00FF81FF80FE003F8C2
:100D70000FF03DE1F7FF8FFC0FC0FFFFFFFFFE0EFE
:100D8000007003801C00E007003801C00E007003F3
:100D9000801C00E00700E03F01F80FC07E03F01F59
:100DA00080FC07E03F01F80FC07F03FC3DFFEFFE32
:100DB0001FC0F00F700E781E781E381C3C1C3C3C87
:100DC0001C381E381E780E700F700FE007E007E029
:100DD00003C003C0F07C1FE0F839C1F07387E1E77E
:100DE0008FE3CF1DC70E3B8E1CF73C3DCF787B8E2B
:100DF000E0771DC0FC3B81F83F03F07C03E0F8077F
:100E000081F00F01E0781E3C3C3C3C1E780FF00F57
:100E1000F007E007C003C007E00FF00FF01E783EB8
:100E20007C3C3C781EF81FF00F781E3C1C3C3C1E9E
:100E3000781E780FF007E007E003C003C003C0038B
:100E4000C003C003C003C003C07FFDFFF7FFC01E87
:100E500000F807C03E00F007803C01E00F807C01F5
:100E6000E00FFFFFFFFFFCFFFFF8E38E38E38E3853
:100E7000E38E38E38E3FFFF0E1C183070E0C183894
:100E80007060C1C383060EFFFFC71C71C71C71C70A
:100E90001C71C71C71FFFFF00F00F00F81F81FC31A
:100EA0009C39C70E70E0FFFFFFFFFEE38C701F87C9
:100EB000FC71EE0E00E07E7FEFCEE0EE1EF1E7FE6D
:100EC0003CE0E00E00E00E00EF8FFCFFEF1EE0FEC6
:100ED0000FE0FE0FE0FF1EFFEFFCEF801F83FC7FA3
:100EE000EF0EF0CE00E00E00F0CF0F7FE3FC1F808E
:100EF0000070070070071E73FF7FFF8FF0FE07E092
:100F00007E07F0FF8F7FF3FF1F701F07F9FF78FE4A
:100F10000FFFFFFF00E01E1DFF9FE1F00F8F8F0707
:100F20000387FBFC70381C0E070381C0E07038009B
:100F30001E73F77FFF8FF0FE07E07E07F0FF0F7F45
:100F4000F3F71E7007F0F7FF7FE1F8E01C038070F5
:100F50000E79DFBFFF8FE0FC1F83F07E0FC1F83FEB
:100F600007E0E0FF8FFFFFFFFFE01C71C01C71C7AF
:100F70001C71C71C71C71C73FFFBC0E01C03807091
:100F80000E3DCF39E778FE1FC3FC7B8E79C738F75B
:100F90000EE1E0FFFFFFFFFFFFE0F7879FF9FBFF98
:100FA000FFFC78FF0F1FE1C3FC387F870FF0E1FEE5
:100FB0001C3FC387F870FF0E1EE79FFBFFF8FE0F74
:100FC000C1F83F07E0FC1F83F07E0E0F81FF1FFC7E
:100FD000F1EF07F03F81FC0FF07BC79FFC7FC0F86B
:100FE00000EF8FFCFFEF1EE0FE0FE0FE0FE0FF1EA4
:100FF000FFEFFCEF8E00E00E00E00E001F73FF7F9E
:10100000FF8FF07F07E07E07F0F78F7FF3FF1E7002
:1010100007007007007007EEFEFEF0E0E0E0E0E0A1
:10102000E0E0E0E03F0FFB8770FF81FF1FF0FF0172
:10103000FC1FC7BFE1F008183838FEFEFE3838380C
:10104000383838383F3F1FE0FC1F83F07E0FC1F86F
:101050003F07E1FE3FFFFFF3CEF07B83DC1CF1E3B3
:101060008E1E707783B81FC07C03E00F007000E015
:10107000E1EE3C39C7C738F9E79F3877670EEEE1F4
:10108000DDF81F3F03E3E07C78078F00E1E0787331
:10109000C78F783F81FC07C03E01F01FC1EF0F38BA
:1010A000F1EF0780F07B839C1CF1E38E1C7077834B
:1010B000B81DC07E03E01F007803803C0FC07E0394
:1010C000E0007FE7FE7FE03E07C0F80F01E03C074D
:1010D00080FFFFFFFFF00F1F3F3C3838383878F0B3
:1010E000E0F07838383838383C3F1F0FFFFFFFFFFB
:1010F000FFFFFFFFF8E0F0F838383838383C1F0FB2
:101100001F3C383838383838F8F0E0780FE1FFF80D
:101110007F01C0B3131A11207E2D000000000B00C8
:10112000010000051C0D04E512000F0A1202E5255E
:1011300000151C1600E56F0013211601E3BE001F09
:101140001D2302E52F011A1C1C02E58A01060A096B
:1011500002E592010A240D02E5BF010A240D01E512
:10116000EC010D0D0F01E5020213121702EB2D0227
:10117000060B0B02FC36020B040D02F63C020505C1
:101180000B03FC40020B1C0B00E56702121C16024D
:10119000E5A6020C1C1603E5D002131C1601E5138C
:1011A00003131C1601E55603141C1601E59C0313DA
:1011B0001C1602E5DF03121C1602E51E04121C16A3
:1011C00002E55D04121C1602E59C04131C1601E5E1
:1011D000DF0405150D04ECED04061B0D03EC020500
:1011E00013151702E93405130C1702ED51051315F9
:1011F0001702E98305141C1802E5C90525252601F7
:10120000E575061C1C1C00E5D706171C1C03E52809
:1012100007181C1C02E57C07171C1C03E5CD0715ED
:101220001C1A03E51708131C1803E55A081A1C1E9C
:1012300002E5B508161C1C03E50209051C0B03E5B5
:101240001409121C1601E55309191C1C03E5AB090E
:10125000141C1803E5F1091B1C2003E5500A161C99
:101260001C03E59D0A1B1C1E02E5FC0A151C1A0343
:10127000E5460B1C1E1E02E5AF0B191C1C03E507FF
:101280000C171C1A01E5580C161C1801E5A50C16C4
:101290001C1C03E5F20C1A1C1A00E54D0D251C253B
:1012A00000E5CF0D1A1C1A00E52A0E1A1C1A00E5DB
:1012B000850E171C1800E5D60E09240D03E5FF0E58
:1012C0000B1C0B00E5260F09240D01E54F0F130F32
:1012D0001702E5730F16041600057E0F08060D01B0
:1012E000E5840F13151601ECB60F131C1803E5F96E
:1012F0000F13151602EC2B10131C1802E56E1013B9
:10130000151601ECA0100E1C0D00E5D110131D18D0
:1013100002EC1611121C1803E55511051C0B03E510
:1013200067110A240BFEE59411121C1603E5D31174
:10133000051C0B03E5E5111E152302EC34121215F2
:101340001803EC641214151802EC9912131D1803FB
:10135000ECDE12131D1802EC23130D150F03EC46DF
:101360001313151601EC78130C1C0D01E5A21312D2
:10137000151803ECD21315151600EC0A141E151ED1
:1013800000EC591415151600EC9114151D1600ECFF
:10139000DE1412151401EC0E150D240F01E549158C
:1013A00005250B03E561150D240F01E59C151507B7
:1013B0001701F0FFFFFFFFFFFFFFFFFFFEF39CE7BA
:1013C000001FFFFFF0FC7FF8FFF1FFE3FFC7FF8F77
:1013D000BF1F3E3E787CF07801E0F00F0F80787CF4
:1013E00003C3C03E1E01E0F00F0F80787CFFFFFFBB
:1013F000FFFFFFFFFFFFFFF0787C07C3C03E1E0129
:10140000E0F00F0F87FFFFFFFFFFFFFFFFFFFF8FE2
:101410000F80787807C3C03C1E01E0F00F0F807882
:10142000780000E0001C000FE007FF01FFF07FFFE5
:101430000FBBF3E73E7CE70F9C01F3803F7003FE98
:10144000007FC007FF00FFF807FF803FF803FF00A1
:1014500073F00E3E01C7C638FFE71F7CE3CFDCF810
:10146000FFFE0FFFC0FFE007F0003800070000E0BC
:10147000001F0007007F801E01FF807807CF00F06B
:101480000F1F03C01E1E07803C3C1E0078783C00E6
:10149000F0F0F001E1E1E003C7C78007CF0F0007DC
:1014A000FE3C0007F8780007E1E0F80003C3FC0009
:1014B0000F0FFC001E3E78007878F000F0F1F0038A
:1014C000C1E1E00783C3C01E0787803C0F1F00F007
:1014D0001E3E01E03E7807803FF00F007FC03C00D9
:1014E0003E0000FC0000FFC000FFF8003FFF001FAF
:1014F00087C007E0F801F03E007E0F800FC7C003F1
:10150000FFF0007FF8000FFC0007FC0003FF000362
:10151000FFE001FFFCF07E3F3E3F07EF8FC1FFE39E
:10152000E03FF0F807FC3E00FE0FC03FC1F83FFC73
:101530007FFFFFCFFFFFE1FFF1F00FE018FFFFFF9C
:10154000FFEFBEF9E003C1E0F83C1F0783E0F83C81
:101550001F07C1F07C3E0F83E0F83E0F83E0F83EAA
:101560000F81F07C1F07C0F03E0F81E07C0F03E08D
:10157000780EF01E0780F03E0781F07C0F03E0F844
:101580003E0F81F07C1F07C1F07C1F07C1F07C3E3D
:101590000F83E0F83C1F07C1E0F83C1F0781C0073C
:1015A000003801C18E3F77FFFCFF81F01FC1EF1EA5
:1015B0007C71C1040001F0003E0007C000F8001F6C
:1015C0000003E0007C07FFFFFFFFFFFFFFFFFF803E
:1015D000F8001F0003E0007C000F8001F0003E00D7
:1015E0007DF7DF7C71C67BC400FFFFFFFFFFF0FFCC
:1015F000FFFF8001E07C0F01E03C0F81E03C0781B0
:10160000F03C0780F01E0780F01E03C0F01E03C0F0
:10161000781E03C0780F03C0780003F003FF01FFBA
:10162000E0FFF87E3F1F07C7C1FBF03EF80FBE0387
:10163000EF80FFE03FF80FFE03FF80FFE03FF80F71
:10164000FE03FF80FBE03EFC0FBF07E7C1F9F8FC9B
:101650003FFF07FF80FFC00FC000F01F01F03F07F2
:10166000F1FF7FFFFFFDFF1FC1F01F01F01F01F021
:101670001F01F01F01F01F01F01F01F01F01F01FFB
:1016800001F01F03F801FFC07FFE1FFFC7F0FCFC45
:101690000F9F01FBE03F0007E000FC001F0007E098
:1016A00001FC007F001FC007F001FC007F001FC08D
:1016B00007F001FC007F000FC003FFFF7FFFFFFF6B
:1016C000FFFFFFFFFFF003F801FFC07FFC1FFFC714
:1016D000E1F8F81F8F03F0007E000F8003F003FC99
:1016E000007F000FE003FF0007F0003E0007E0006E
:1016F000FC000F8003F7C07EF80FDF83F3F8FE3F96
:10170000FF83FFE03FF801FC00001F0001F0003FF5
:101710000007F0007F000FF001FF003FF003FF0023
:101720007DF00F9F00F9F01F1F03E1F07E1F07C13E
:10173000F0F81F0FFFFFFFFFFFFFFFFFFFFFFFFF9F
:10174000001F0001F0001F0001F0001F0001F01F4A
:10175000FF83FFF07FFE1FFFC3FFF87C000F8001B7
:10176000F0007E000FBF01FFF83FFF87FFF8FC3F4E
:101770001E03F0003E0007C000F8001F8003EF804A
:101780007DF01FBF03F3F0FC7FFF07FFE07FF00356
:10179000F80001F801FF81FFF0FFFE3F1F9F83F774
:1017A000C07BF000FC003E3E0FBFE3FFFCFFFFBF2D
:1017B000C7EFE0FFF01FFC07FF01FFC07FF01FFC39
:1017C00007DF01F7E0FDFC7E3FFF87FFC0FFC00F92
:1017D000C0FFFFFFFFFFFFFFFFFFFFFF8007E001EC
:1017E000F000F8007E001F000F8003E001F0007C95
:1017F000003E000F8003E001F0007C001F000FC0DE
:1018000003E000F8003E000F8003E001F8007E00D6
:1018100007F007FF03FFE1FFFC7E1FBF03EF80FB24
:10182000E03EF80F9F07E7E1F0FFF81FFC07FF031A
:10183000FFF1F87EFC0FBE03FF807FE01FF807FE7C
:1018400003FFC0FBF87E7FFF0FFFC1FFC01FC00377
:10185000F001FF807FF81FFF87E1F8F81F1F03F7F3
:10186000E03EFC07DF80FFF01FFE03F7C0FEF81F1D
:10187000DF87F9FFFF1FFFE1FEFC0F9F8003E00001
:101880007CF81F9F03E3F0FC3FFF07FFC03FF0031E
:10189000F800FFFFFF80000000000000FFFFFF8056
:1018A0007DF7DF7C00000000000000007DF7DF7C9A
:1018B00071C67BC400000020003C001F800FF00FA9
:1018C000FC07FE03FF03FF80FFC01FC003F0007F83
:1018D000800FFC007FE003FF001FF800FFC003FC47
:1018E000001F8000F00002FFFFFFFFFFFFFFFFFF70
:1018F000F0000000000000000000FFFFFFFFFFFFFE
:10190000FFFFFFF080001C0003F0007F8007FC0059
:101910003FF001FF800FFC007FE003FC001F800F01
:10192000F007FE03FF01FF80FFC07FC01FE003F050
:1019300000700008000003FC00FFF01FFF83FFFCA5
:101940007F07E7C03FFC01FF801F0001F0003F0060
:1019500003F000FE001FC003F8007F000FE000FC52
:10196000000F8001F0001F0001F0000000000000E7
:101970001F8001F8001F8001F8001F800001FF0098
:101980000000FFFF00001FFFFE0001FFFFFC003F03
:10199000E00FF003F8000FC01F00003F01F03E3ED3
:1019A000781F07F9F3E0F07FEF8F0F07FFF8387823
:1019B0007FFFC1E787F0FE0F3C3E03F079C3F01FC5
:1019C00083DE1F00781EF0F803C0F78F803E07BC4F
:1019D0007C01F039E3E00F83CF1F00F83E78FC0F65
:1019E000C1E3C3F0FE1E0E1FFFF3F070FFFFFF0305
:1019F000C3FFFFF01E0FFBFE00781F0FC003E000C7
:101A0000000F8F800000F83E00000F81FC0001FCF9
:101A100007FE007FC00FFFFFF8003FFFFF80003F81
:101A2000FFF000003FF80000001F800003F80000F6
:101A30003FC00007FC00007FE00007BE0000FBE0A5
:101A4000000F9F0000F9F0001F1F8001F0F8003F19
:101A50000F8003F0FC003E0FC007E07E007E07E031
:101A60000FC07E00FC07F00FFFFF01FFFFF81FFF14
:101A7000FF81FFFFF83F000FC3F000FC7E000FE77F
:101A8000E0007E7E0007EFC0003FFFFF81FFFFC345
:101A9000FFFFC7FFFFCFC01F9F801FBF003F7E001B
:101AA0007EFC00FDF801F3F007E7FFFF8FFFFC1F4E
:101AB000FFFE3FFFFE7E00FEFC00FFF800FFF0018E
:101AC000FFE003FFC007FF800FFF001FFE00FEFFC7
:101AD000FFFDFFFFF3FFFFC7FFFE00007F8003FF56
:101AE000E007FFF80FFFFC1FC1FC3F007E7E007F78
:101AF0007E003F7C0038FC0000FC0000FC0000FC85
:101B00000000FC0000FC0000FC0000FC0000FC00E9
:101B100000FC00107C003E7E003F7E007F3F00FE08
:101B20001FC1FE0FFFFC07FFF803FFE0007F80FFEF
:101B3000FE01FFFF83FFFF87FFFF8F807F9F003F36
:101B40003E003F7C007EF8007FF000FFE001FFC018
:101B500003FF8007FF000FFE001FFC003FF8007F1F
:101B6000F000FFE001FFC003FF800FDF001FBE0099
:101B70007E7C01FCFFFFF1FFFFC3FFFF07FFF000CA
:101B8000FFFFFFFFFFFFFFFFFFFFFF80007C000361
:101B9000E0001F0000F80007C0003E0001FFFFCF7B
:101BA000FFFE7FFFF3FFFF9F0000F80007C0003E2D
:101BB0000001F0000F80007C0003E0001F0000FF28
:101BC000FFFFFFFFFFFFFFFFFFF0FFFFFFFFFFFF34
:101BD000FFFFFFFFC001F8003F0007E000FC001F0F
:101BE0008003F0007E000FFFF9FFFF3FFFE7FFFCDF
:101BF000FC001F8003F0007E000FC001F8003F00D2
:101C000007E000FC001F8003F0007E0000007FC0A2
:101C1000007FFE007FFFC03FFFF81FE0FF0FE00FD7
:101C2000E3F001F9F8007E7E000E3F00000FC000D7
:101C300003F00000FC00003F00FFFFC03FFFF00F7B
:101C4000FFFC03FFFF0003FFC000FDF8003F7E0024
:101C50000FCFC003F3F803FC7F83FF0FFFFFC1FF2B
:101C6000FFC01FFFC000FF80FC007FF001FFC00726
:101C7000FF001FFC007FF001FFC007FF001FFC00FA
:101C80007FF001FFC007FFFFFFFFFFFFFFFFFFFF28
:101C9000FFFF001FFC007FF001FFC007FF001FFCDB
:101CA000007FF001FFC007FF001FFC007FF001FF75
:101CB000C007FF001FFFFFFFFFFFFFFFFFFFFFFF4A
:101CC000FFFFFFFFFFFFF0000FC003F000FC003F2D
:101CD000000FC003F000FC003F000FC003F000FC49
:101CE000003F000FC003F000FC003F000FC003F0F6
:101CF00000FCE03EF80FBE03EFC1FBF8FE7FFF1FC4
:101D0000FF81FFC01FC0FC00FF7E00FF3F00FF1FE0
:101D100080FF0FC07F07E07F03F07F01F87F00FCAA
:101D20007F007E7F003F7F001FFFC00FFFE007FFA7
:101D3000F803FFFC01FF3F00FF1FC07F07E03F03E8
:101D4000F81F80FE0FC07F07E01FC3F007F1F80304
:101D5000F8FC00FE7E007F3F001FDF800FF0FC00DC
:101D60000FC000FC000FC000FC000FC000FC000F03
:101D7000C000FC000FC000FC000FC000FC000FC042
:101D800000FC000FC000FC000FC000FC000FC000F2
:101D9000FC000FC000FC000FC000FFFFFFFFFFFFB3
:101DA000FFFFFFFFFF003FFFF007FFFE00FFFFC048
:101DB0003FFFF807FFFF80FFFFF01FFFFE07FFFB5D
:101DC000C0FFFF7C1FFFEF83DFFDF0FBFF9F1F7F46
:101DD000F3E3EFFE7CF9FFCF9F3FF8FBE7FF1F7CAB
:101DE000FFE3FF1FFC7FE3FF87FC7FF0FF8FFE1FF9
:101DF000E1FFC3FC3FF83F87FF07F0FFE0FC1FFC5B
:101E00001F83F0FC007FF001FFE007FF801FFF0051
:101E10007FFC01FFF807FFE01FFBC07FEF01FF9E83
:101E200007FE3C1FF8F07FE1E1FF8787FE0F1FF8F8
:101E30003C7FE079FF81E7FE03DFF80F7FE01FFFC3
:101E4000807FFE00FFF801FFE007FF800FFE003FEC
:101E5000007F80007FFE001FFFF007FFFF01FE0FE5
:101E6000F07F007E1FC007E3F0007EFC000FDF80E4
:101E700001FBF0001F7E0003FFC0007FF8000FFF92
:101E80000001FFE0003FFC0007FF8000FBF0003F87
:101E90007E0007E7E001FCFE003F0FE00FE0FF07D8
:101EA000F80FFFFE00FFFF800FFFC0003FC000FFE4
:101EB000FF07FFFE3FFFF9FFFFEF807F7C01FFE0A0
:101EC00007FF003FF801FFC00FFE007FF007FF8013
:101ED0007F7FFFFBFFFF9FFFF8FFFE07C0003E0074
:101EE00001F0000F80007C0003E0001F0000F800FC
:101EF00007C0003E0001F00000007F80003FFF00AF
:101F000007FFFC00FFFFE01FE0FF03F803F87F007E
:101F10001F87E001FCFC000FCFC000FCFC0007CFD6
:101F2000C0007EFC0007EFC0007EFC0007EFC00091
:101F30007EFC0007EFC0007CFC000FCFC060FC7E81
:101F4000078F87F0FFF83F87FF01FC1FF01FFFFF9F
:101F5000007FFFFE03FFFFF007F87E000003E000B4
:101F6000000CFFFF807FFFF83FFFFE1FFFFF8FC0C9
:101F70001FC7E007E3F001F9F800FCFC007E7E00DB
:101F80003F3F003F1F803F8FFFFF87FFFF83FFFF23
:101F900081FFFC00FC3F807E0FE03F03F81F80FEC6
:101FA0000FC07F07E01FC3F007F1F803F8FC00FE45
:101FB0007E003F3F001FDF8007F000FF000FFF8023
:101FC0003FFFC0FFFFC3F83F87C01F9F803F3F0018
:101FD0003E7E00007E0000FF0001FFC001FFF8010F
:101FE000FFFC00FFFE007FFE000FFC0003FC000171
:101FF000F8E003FFC007EFC00FDFC03F9FC0FE3F08
:10200000FFFC3FFFF01FFF800FFC00FFFFFFFFFF03
:10201000FFFFFFFFFFFF00FC0003F0000FC0003FC9
:102020000000FC0003F0000FC0003F0000FC0003B4
:10203000F0000FC0003F0000FC0003F0000FC000E4
:102040003F0000FC0003F0000FC0003F0000FC0058
:1020500003F0000FC0003F00F800FFE003FF800F17
:10206000FE003FF800FFE003FF800FFE003FF80096
:10207000FFE003FF800FFE003FF800FFE003FF805A
:102080000FFE003FF800FFE003FF800FFF003FFC62
:1020900000FFF003F7E01F9FC0FE3FFFF07FFF80CF
:1020A000FFFC00FFC0FC000FDF8007E7E001F9F84C
:1020B000007E3F001F0FC00FC3F003F07E00F81F2B
:1020C000807E07E01F80FC07C03F03F00FC0FC01CB
:1020D000F83E007E1F800F87C003F1F000FCFC007B
:1020E0001F3E0007EF8001FFE0003FF0000FFC0003
:1020F00003FF00007F80001FE00007F80000FC00E5
:10210000FC01FC01FFE00FE00F9F007F807CFC07DB
:10211000FC07E7E03FE03F3F01FF01F0F81FFC0F45
:1021200087E0FBE0FC3F07DF07E1F83EF83E07C32E
:10213000F7E1F03E1F1F0F81F8F8F8FC0FC7C7C783
:10214000E03E7E3F3E01F3E0F9F00FDF07DF807EE7
:10215000F83EFC01FF81FFC00FFC07FE007FE03F5F
:10216000F003FF01FF801FF007F8007F803FC003EE
:10217000FC01FE001FE00FF000FE003F0003F00135
:10218000F8007F003F8FC00FC1F807E07F03F80F12
:10219000C0FC03F87F007F3F800FCFC003FFF0003B
:1021A0007FF8000FFC0003FF00007F80000FC000DD
:1021B00007F80003FF0000FFC0007FF8003FFF00AA
:1021C0000FCFC007F3F803F87F00FC0FC07F03F8C0
:1021D0003F807F0FC00FC7F003FBF8007FFE001F9A
:1021E000DF8007E3F003F0FE00FC1F807E07F03F76
:1021F00080FC0FC01F87E007F1F800FCFC001FBE49
:102200000007FF8000FFC0003FF00007F80000FC5F
:1022100000003F00000FC00003F00000FC00003F82
:1022200000000FC00003F00000FC00003F00000FA2
:10223000C00003F00000FC003FFFFE7FFFFCFFFF3B
:10224000F9FFFFF0001FC0007F0001FE0007F8004B
:102250000FE0003F8000FF0003FC0007F0001FC0FC
:10226000007F8001FE0007F8000FE0003F8000FFC4
:102270000003FC0007F0001FC0007F8000FFFFFF8D
:10228000FFFFFFFFFFFFFFFFF0FFFFFFFFFF87C321
:10229000E1F0F87C3E1F0F87C3E1F0F87C3E1F0F92
:1022A00087C3E1F0F87C3E1F0F87C3E1F0FFFFFF1B
:1022B000FFF0F01E01E03C0780F00F01E03C0780DA
:1022C000780F01E03C03C0780F01E01E03C0780FD7
:1022D00001F01E03C0780F80F0FFFFFFFFF0F87CD5
:1022E0003E1F0F87C3E1F0F87C3E1F0F87C3E1F06C
:1022F000F87C3E1F0F87C3E1F0F87C3E1FFFFFFF15
:10230000FFF001F0003E000FE001FC007FC00FF87D
:1023100003EF807DF01F3F03E3E0F87C1F07C7E079
:10232000F8F80FBF01F0FFFFFFFFFFFFFFFFFFFF08
:10233000FFFC7C3E1E0F0703FC01FFE07FFE1FFF3A
:10234000E7E0FCF80F8701F0003E001FC03FF87F78
:10235000FF1FF3E7E07CF80FBF01F7E07EFE1FCF21
:10236000FFF9FFFF1FF9F0FC3EF8001F0003E0003B
:102370007C000F8001F0003E0007C7E0FBFF1FFF5D
:10238000F3FFFF7F0FEFC07FF80FFE01FFC01FF8C4
:1023900003FF007FE00FFC01FF803FF80FFF01F714
:1023A000F8FEFFFF9FFFF3EFF87C7E0003F801FFCC
:1023B000C07FFC1FFFC7E0FCF80FBF01C7C000F8DB
:1023C000001F0003E0007C000F8001F00E3F01FBC6
:1023D000E03E7F0FC7FFF07FFC07FF003F80000358
:1023E000E0007C000F8001F0003E0007C000F83FD5
:1023F0001F1FFBE7FFFDFFFFBF8FFFC07FF80FFE32
:1024000000FFC01FF803FF007FE00FFC01FF803FCB
:10241000F80FFF01FBF8FF7FFFE7FFFC7FEF83F181
:10242000F003F801FFC07FFC1FFFC3F0FCFC0F9F0F
:1024300001F3E01FFC03FFFFFFFFFFFFFFFFC001F1
:10244000F8001F0003F0383F0FE7FFF87FFE07FF9B
:10245000803FC003F81FF0FFC3FF1F807E01F83FDD
:10246000FEFFFBFFEFFF87E01F807E01F807E01F04
:10247000807E01F807E01F807E01F807E01F807E64
:1024800001F807E007E3E3FF7CFFFFBFFFF7F1FF81
:10249000F80FFF01FFC01FF803FF007FE00FFC01F2
:1024A000FF803FF007FF01FFE03F7F1FEFFFFCFFD2
:1024B000FF8FF9F07E3E0007F800FFF01F7E0FEF60
:1024C000FFF8FFFE0FFF807FC0F8003E000F800383
:1024D000E000F8003E000F8003E1F0F9FF3EFFEF5F
:1024E000FFFBF87FFC0FFF01FF807FE01FF807FE76
:1024F00001FF807FE01FF807FE01FF807FE01FF8EB
:1025000007FE01FF807FE01FFFFFF0001FFFFFFFBE
:10251000FFFFFFFFFFFFFFFFFFF007C1F07C1F0081
:102520000000001F07C1F07C1F07C1F07C1F07C11E
:10253000F07C1F07C1F07C1F07C1F07C1F07C1F0B2
:102540007C3F7FDFEFF3F8F8003E000F8003E000F0
:10255000F8003E000F8003E07EF83F3E1FCF8FE380
:10256000E7F0F9F83EFC0FFE03FF80FFF03FFC0FA1
:10257000FF83FBF0FC7C3E1F8F83E3E0FCF81F3EF3
:1025800007EF80FBE03FFFFFFFFFFFFFFFFFFFFFC5
:10259000FFFFFFFFFFFFFFF0F87C07C3E7FC7FCFE3
:1025A000BFFBFFBFFFFFFFFF0FF0FFF83F83FFC040
:1025B000FE07FF01F01FFC07C07FF01F01FFC07C7A
:1025C00007FF01F01FFC07C07FF01F01FFC07C0761
:1025D000FF01F01FFC07C07FF01F01FFC07C07FF59
:1025E00001F01FFC07C07CF8FC3EFFCFFFFBFFFFA4
:1025F000FF1FFF03FFC07FE01FF807FE01FF807F82
:10260000E01FF807FE01FF807FE01FF807FE01FFD3
:10261000807FE01FF807C001F800FFF01FFF83FF75
:10262000FC7F0FE7E07EFC03FF803FF801FF801F87
:10263000F801FF801FF801FF803FFC03F7E07E7F79
:102640000FE3FFFC1FFF80FFF001F800F8FC1F7F85
:10265000E3FFFE7FFFCFF1FDF80FFF01FFC01FF882
:1026600003FF007FE00FFC01FF803FF007FF01FF49
:10267000E03FFF1FDFFFF3FFFE7CFF8F8FC1F00005
:102680003E0007C000F8001F0003E0007C000F8040
:102690000007E3E1FF7CFFFF9FFFF7F0FEFC0FFF69
:1026A00001FFE01FF803FF007FE00FFC01FF803F08
:1026B000F807FF01FBE03F7F1FE7FFFCFFFF8FFDF7
:1026C000F07E3E0007C000F8001F0003E0007C0021
:1026D0000F8001F0003EF9F7DFFFFDFFEFFF7F13F2
:1026E000F01F00F807C03E01F00F807C03E01F00E0
:1026F000F807C03E01F00F800007F803FFE0FFFE7F
:102700003FFFC7C0FCF80E1F0003FC007FF807FF67
:10271000E07FFE03FFE00FFE001FC601FFE03FFE6B
:102720000FCFFFF8FFFE0FFF803FC00200601E03C7
:10273000E03E03E03E0FFEFFEFFEFFE3E03E03E07E
:102740003E03E03E03E03E03E03E03E03E03F03F95
:10275000E1FE1FE07EF807FE01FF807FE01FF80723
:10276000FE01FF807FE01FF807FE01FF807FE01F72
:10277000F807FE03FF80FFF03FFE3FFFFFF7FFFC7F
:10278000FFDF0FC7C0FC00FBE00FDF807C7C07E3AE
:10279000E03F1F81F07C1F83E0F80F87C07C7E0341
:1027A000F3E00F9F007DF003EF800FFC007FC0017E
:1027B000FE000FF0007F0001F8000F8000FC0FC04A
:1027C0007DF03F01F7C0FC0FDF03F83E3E1FE0F84D
:1027D000F87F87E3E1FE1F0F87FC7C1F3FF1F07C51
:1027E000FBCF81F3CF3E03EF3EF80FFCFBC03FF180
:1027F000FF007F87FC01FE1FF007F83F801FE0FE0F
:10280000003F03F800FC0FC003F01F007E03F1F847
:102810003F8FE1F83F1F80FDFC07EFC01FFC007FEA
:10282000E003FE000FE0007F0003FC003FF003FF29
:10283000801FFE01FBF81F8FC0FC3F0FC1FCFC078F
:10284000E7E03F80FC01FBE00FDF807C7C07E3E0FA
:102850003E1F81F07C1F83E0F81F87C07C7E03E36E
:10286000E01F9F007CF803EF800FFC007FE003FE79
:10287000000FF0007F8003F8000FC0007C0007E02D
:10288000003F0003F001FF800FF8007F8003F0009D
:1028900000FFFFBFFFEFFFFBFFFE003F801FC00FE9
:1028A000E007F003FC00FE007F003F801FC00FF038
:1028B00003F801FC00FE003FFFFFFFFFFFFFFFFFEB
:1028C000C000F81FC1FE0FF07F87E03E01F00F80CF
:1028D0007C03E01F00F807C07E07E0FF07E03F0130
:1028E000FE03F00FC03E01F00F807C03E01F00F8F4
:1028F00007C03F00FF07F83FC0FE01F0FFFFFFFFEA
:10290000FFFFFFFFFFFFFFFFFFFFFFFFFFFFFFFFD7
:10291000FFFFFF80F807F03FC1FE0FF00FC03E0140
:10292000F00F807C03E01F00F807C03F00FC07F8B1
:102930000FC07E0FF07E07E03E01F00F807C03E0C9
:102940001F00F807C07E1FE0FF07F83F81F0001F5F
:102950008009FF00DFFE1FFFFFFE0FFF601FF20078
:102960003E00CB2969292C396C00000E1C1A05F495
:102970003100190C1F05E357000D0D1A07F46D0007
:102980001A441A00BD4A012C453404BDC6021E4437
:102990003407BDC5032E443402BD4C052C45340418
:1029A000BDC80630433402BE5A082D443404BED993
:1029B000092D453404BD5E0B2C433404BECF0C2CD2
:1029C000453404BD4B0E2D453403BD7FFDFFF7FF9D
:1029D000DFFF7FFDFFF7FFDFFF7FFDFFF7FFDFFF7B
:1029E0007FFC03F00FC07F01FC07F03F81FE0FF07A
:1029F000FFC7FE1FF07F80FC03C00400FFFFFFFF46
:102A0000FFFFFFFFFFFFFFFFFFFFFFFFFFFFFFFFD6
:102A1000FFFFFFFFFFFFFFFFFFFFFFFFFFFFFFFFC6
:102A2000FFF0FFFFFFFFFFFFFFFFFFFFFFFFFFFFC5
:102A3000FFFFFFFFFFFFFF800000FFC0003FF0002F
:102A40000FFC0003FE0001FF80007FE0001FF80084
:102A500007FC0003FF0000FFC0003FF0000FF8007C
:102A600007FE0001FF80007FE0001FF0000FFC0068
:102A700003FF0000FFC0003FE0001FF80007FE005A
:102A800001FF80007FC0001FF0000FFC0003FF006B
:102A900000FF80003FE0001FF80007FE0001FF007C
:102AA000007FC0003FF0000FFC0003FE0000FF802D
:102AB000007FE0001FF80007FC0001FF0000FFC0DE
:102AC000003FF0000FF80003FE0001FF80007FE0F0
:102AD000001FF00007FC0003FF0000FFC0003FE004
:102AE000000FF80007FE0001FF80007FC0001FF00C
:102AF000000FFC0003FF0000FF80003FE0001FF814
:102B00000007FE0001FF00007FC0003FF0000FFC47
:102B10000003FE000000007FE00000003FFFC00057
:102B2000000FFFFF000003FFFFF800007FFFFFE042
:102B3000000FFFFFFF0001FFFFFFF8003FFFFFFF57
:102B40008007FFFFFFFC007FFFFFFFE00FFFFFFF9D
:102B5000FE00FFFE0FFFF01FFFC03FFF01FFF80167
:102B6000FFF81FFF001FFF83FFF000FFF83FFE008C
:102B70000FFFC3FFE0007FFC7FFE0007FFC7FFC021
:102B8000007FFC7FFC0007FFC7FFC0003FFE7FFC0B
:102B90000003FFE7FFC0003FFEFFFC0003FFEFFF65
:102BA000C0003FFEFFFC0003FFEFFFC0003FFEFF41
:102BB000FC0003FFEFFF80003FFEFFF80003FFFF74
:102BC000FF80003FFFFFF80003FFFFFF80003FFF93
:102BD000FFF80003FFFFFF80003FFFFFF80003FF47
:102BE000FFFF80003FFFFFF80003FFFFFF80003F73
:102BF000FFFFFC0003FFEFFFC0003FFEFFFC0003F0
:102C0000FFEFFFC0003FFEFFFC0003FFE7FFC00037
:102C10003FFE7FFC0003FFE7FFC0007FFE7FFC005C
:102C200007FFE7FFC0007FFC7FFE0007FFC3FFE058
:102C3000007FFC3FFE000FFFC3FFF000FFF83FFFE7
:102C4000000FFF81FFF801FFF81FFFC03FFF00FFEB
:102C5000FE0FFFF00FFFFFFFFE007FFFFFFFE0070B
:102C6000FFFFFFFC003FFFFFFF8001FFFFFFF800B9
:102C70000FFFFFFF00007FFFFFE00003FFFFFC00EE
:102C8000000FFFFF0000003FFFC00000007FE000DA
:102C90000000001FFC00007FF00003FFC0000FFFDA
:102CA00000007FFC0001FFF0000FFFC0007FFF006D
:102CB00003FFFC001FFFF000FFFFC00FFFFF007FBE
:102CC000FFFC03FFFFF03FFFFFC3FFFFFF3FFFFFDE
:102CD000FFFFFFFFFFFFFFFFFFFFFFFFFFFF7FFF84
:102CE000FFF9FFFFFF87FFFFFC1FFFFFE07FFFFEF5
:102CF00001FFFFF007FFFF001FFFF0007FFF000153
:102D0000FFF00007FFC0001FFF00007FFC0001FF75
:102D1000F00007FFC0001FFF00007FFC0001FFF074
:102D20000007FFC0001FFF00007FFC0001FFF00054
:102D300007FFC0001FFF00007FFC0001FFF000073D
:102D4000FFC0001FFF00007FFC0001FFF00007FF35
:102D5000C0001FFF00007FFC0001FFF00007FFC064
:102D6000001FFF00007FFC0001FFF00007FFC00014
:102D70001FFF00007FFC0001FFF00007FFC0001FE5
:102D8000FF00007FFC0001FFF00007FFC0001FFFF5
:102D900000001FFC00000007FFFF000000FFFFFF16
:102DA000000007FFFFFF00007FFFFFFE0003FFFFA3
:102DB000FFFC001FFFFFFFF800FFFFFFFFF007FF12
:102DC000FFFFFFE01FFFFFFFFF80FFFFFFFFFF038D
:102DD000FFFE07FFFC1FFFC007FFF87FFE000FFF8D
:102DE000E1FFF8001FFF87FFC0003FFE3FFF00002C
:102DF000FFF8FFF80003FFF3FFE00007FFCFFF80BD
:102E0000001FFF007E00007FF800000003FFE000CD
:102E100000000FFF800000003FFE00000000FFF8F0
:102E200000000007FFC00000001FFF00000000FFBF
:102E3000FC00000007FFE00000001FFF8000000012
:102E4000FFFC00000007FFF00000003FFF800000D3
:102E500001FFFC0000000FFFF00000007FFF80007A
:102E60000003FFFC0000001FFFE0000000FFFF0068
:102E7000000007FFF80000003FFFC0000001FFFE58
:102E80000000000FFFF0000000FFFF80000003FFC4
:102E9000FC0000001FFFE0000000FFFF0000000733
:102EA000FFF80000003FFFC0000001FFFE0000002F
:102EB0000FFFF00000007FFF80000003FFFC000018
:102EC000000FFFE00000007FFF00000003FFFFFF96
:102ED000FFFF0FFFFFFFFFFC7FFFFFFFFFF1FFFF83
:102EE000FFFFFFCFFFFFFFFFFF3FFFFFFFFFFCFFE5
:102EF000FFFFFFFFF7FFFFFFFFFFDFFFFFFFFFFF0A
:102F00007FFFFFFFFFFDFFFFFFFFFFF7FFFFFFFF5B
:102F1000FFFFFFFFFFFFFF0000FFC00000007FFF7B
:102F2000C000003FFFFF000007FFFFFC0001FFFFA4
:102F3000FFE0003FFFFFFF0007FFFFFFF800FFFF7C
:102F4000FFFFC00FFFFFFFFE01FFFFFFFFE01FFFBE
:102F5000FFFFFF03FFFC0FFFF03FFF003FFF87FF76
:102F6000E001FFF87FFC001FFF87FF8000FFF87F74
:102F7000F8000FFF83FF8000FFF80070000FFF8054
:102F8000000000FFF80000000FFF80000001FFF0CC
:102F90000000001FFF00000003FFF00000007FFEA4
:102FA0000000003FFFC000007FFFF8000007FFFFA8
:102FB0000000007FFFE0000007FFFC0000007FFF33
:102FC00000000007FFFC0000007FFFF0000007FF8B
:102FD000FFC00000FFFFFE00000FFFFFF00000C079
:102FE0007FFF80000001FFF80000000FFFC000001D
:102FF000007FFE00000003FFE00000003FFE000035
:103000000003FFF00000001FFF00000001FFF000C0
:1030100000001FFF00000001FFF00000001FFF0084
:10302000F00001FFFFFF00001FFFFFF00001FFFFA6
:10303000FF80003FFFFFF80003FFFFFFC0007FFE9F
:103040007FFC0007FFE7FFE000FFFE7FFF001FFFA0
:10305000C3FFFE07FFFC3FFFFFFFFF81FFFFFFFFF6
:10306000F00FFFFFFFFF00FFFFFFFFE007FFFFFF85
:10307000FC003FFFFFFF8000FFFFFFF00007FFFFA6
:10308000FC00001FFFFF0000007FFFC0000000FFEA
:10309000E0000000000007FF000000000FFF00003C
:1030A00000001FFF000000003FFF000000003FFF86
:1030B000000000007FFF00000000FFFF0000000094
:1030C000FFFF00000001FFFF00000003FFFF000002
:1030D0000003FFFF00000007FFFF0000000FFFFFDD
:1030E0000000000FFFFF0000001FFFFF0000003F77
:1030F000FFFF0000007FFFFF0000007FFFFF0000D8
:1031000000FFFFFF000001FFFFFF000001FFFFFFC6
:10311000000003FFDFFF000007FF9FFF000007FF25
:103120009FFF00000FFF1FFF00001FFE1FFF00009A
:103130001FFE1FFF00003FFC1FFF00007FF81FFF66
:103140000000FFF81FFF0000FFF01FFF0001FFE07D
:103150001FFF0003FFC01FFF0003FFC01FFF00078A
:10316000FF801FFF000FFF001FFF000FFF001FFF6A
:10317000001FFE001FFF003FFC001FFF007FFC0040
:103180001FFF007FF8001FFF00FFF0001FFF00FF80
:10319000FFFFFFFFFFFFFFFFFFFFFFFFFFFFFFFF3F
:1031A000FFFFFFFFFFFFFFFFFFFFFFFFFFFFFFFF2F
:1031B000FFFFFFFFFFFFFFFFFFFFFFFFFFFFFFFF1F
:1031C000FFFFFFFFFFFFFFFFFFFFFFFFFFFFFFFF0F
:1031D000FF0000001FFF000000001FFF00000000B4
:1031E0001FFF000000001FFF000000001FFF000085
:1031F00000001FFF000000001FFF000000001FFF75
:10320000000000001FFF000000001FFF0000000082
:103210001FFF000000001FFF000000001FFF000054
:1032200000001FFF0000FFFFFFFFC007FFFFFFFEC2
:10323000003FFFFFFFF001FFFFFFFF800FFFFFFFD9
:10324000FC00FFFFFFFFE007FFFFFFFF003FFFFF66
:10325000FFF801FFFFFFFFC00FFFFFFFFE00FFFFB2
:10326000FFFFF007FFFFFFFF803FFFFFFFFC01FFB5
:10327000E00000000FFF000000007FF800000007E2
:10328000FFC00000003FFC00000001FFE000000064
:103290000FFF000000007FF800000007FFC00000E3
:1032A000003FFC1FE00001FFE7FFF0000FFFFFFF02
:1032B000E0007FFFFFFF8003FFFFFFFF003FFFFFF6
:1032C000FFFC01FFFFFFFFF00FFFFFFFFFC07FFFCD
:1032D000FFFFFE03FFFFFFFFF83FFFFFFFFFE1FFE0
:1032E000FF03FFFF0FFFC003FFFC7FFC000FFFE3A6
:1032F000FFC0003FFF003C0000FFFC00000007FF94
:10330000E00000003FFF00000000FFF800000007A1
:10331000FFC00000003FFE00000001FFF0000000C1
:103320000FFF800000007FFC00000003FFE01F0093
:10333000001FFFFFF80000FFFFFFC00007FFDFFFD7
:1033400000007FFEFFF80003FFE7FFE0003FFF3FC4
:10335000FF8001FFF8FFFC001FFF87FFF801FFFC63
:103360003FFFF03FFFC0FFFFFFFFFE03FFFFFFFF38
:10337000E01FFFFFFFFE007FFFFFFFF001FFFFFFE9
:10338000FF0007FFFFFFF0001FFFFFFE00007FFFB1
:10339000FFE00000FFFFFC000001FFFF80000000D5
:1033A000FFE0000000001FF800000007FFFC000025
:1033B00000FFFFF800001FFFFFE00001FFFFFFC05C
:1033C000003FFFFFFF0003FFFFFFF8003FFFFFFF8D
:1033D000E001FFFFFFFF801FFFFFFFFC01FFFFFF7A
:1033E000FFF00FFFF03FFF80FFFE007FFE07FFE0D2
:1033F00001FFF07FFE000FFF83FFE0003FFC3FFF77
:103400000001FFF1FFF0000F800FFF800000007F40
:10341000FC00000007FFE00000003FFE000000018C
:10342000FFF00000000FFF800000007FFC07FC00A1
:1034300007FFE0FFFC003FFF1FFFF801FFF9FFFF60
:10344000E00FFFBFFFFF807FFDFFFFFE03FFFFFFD9
:10345000FFF81FFFFFFFFFE0FFFFFFFFFF87FFFFFA
:10346000FFFFFE3FFFFFFFFFF1FFFFE07FFFCFFF0A
:10347000FC00FFFE7FFFC003FFFBFFFC000FFFDF30
:10348000FFE0003FFEFFFE0001FFF7FFF00007FF37
:10349000FFFF80003FFFFFFC0001FFF7FFC0000FB0
:1034A000FFBFFE00007FFDFFF00003FFEFFF800085
:1034B0001FFF7FFE0000FFFBFFF00007FFCFFF8034
:1034C000003FFE7FFC0001FFE3FFF0000FFF1FFF46
:1034D0008000FFF87FFE0007FFC3FFF8007FFC0FAE
:1034E000FFE007FFE07FFFC0FFFF01FFFFFFFFF0EE
:1034F0000FFFFFFFFF003FFFFFFFF800FFFFFFFF91
:103500008003FFFFFFF8000FFFFFFF80003FFFFF7A
:10351000F80000FFFFFF800001FFFFF0000003FF45
:10352000FE00000003FF000000FFFFFFFFFFFFFFA2
:10353000FFFFFFFFFFFFFFFFFFFFFFFFFFFFFFFF9B
:10354000FFFFFFFFFFFFFFFFFFFFFFFFFFFFFFFF8B
:10355000FFFFFFFFFFFFFFFFFFFFFFFFFFFFFFFF7B
:10356000FFFFFFFFFFFFFFFFFFFFFEFFFFFFFFFF6C
:10357000C00000007FF80000000FFF00000001FF06
:10358000E00000001FFE00000003FFC00000007FFD
:10359000F800000007FF80000000FFF00000001F9F
:1035A000FE00000001FFE00000003FFC00000007FB
:1035B000FFC00000007FF80000000FFF00000000C7
:1035C000FFF00000001FFE00000001FFE00000000F
:1035D0003FFC00000003FFC00000007FF800000077
:1035E00007FF80000000FFF80000000FFF00000050
:1035F00000FFF00000001FFE00000001FFE00000DF
:10360000003FFE00000003FFC00000003FFC000080
:103610000007FFC00000007FF800000007FF8000E7
:103620000000FFF80000000FFF00000000FFF000A6
:1036300000000FFF00000001FFF00000001FFE006F
:10364000000001FFE00000001FFE00000001FFE09D
:103650000000003FFE00000003FFC00000003FFC30
:1036600000000003FFC00000003FFC00000003FF5B
:10367000C00000007FFC00000007FFC00000007FCA
:10368000FC00000007FFC00000007FF800000007FA
:10369000FF800000007FF80000000000FFE0000055
:1036A00000FFFFE000003FFFFF800007FFFFFE007C
:1036B00001FFFFFFF0003FFFFFFF8007FFFFFFFC60
:1036C000007FFFFFFFE00FFFFFFFFE01FFFFFFFF97
:1036D000F01FFFE07FFF83FFF801FFF83FFF000FBF
:1036E000FF83FFE0007FF83FFC0007FFC3FFC0003F
:1036F0007FFC3FFC0003FFC3FFC0003FFC3FFC001A
:1037000003FFC3FFC0003FFC3FFC0003FFC3FFC03B
:10371000007FF83FFC0007FF81FFE0007FF81FFFFC
:10372000000FFF00FFF801FFF00FFFE07FFE007FBA
:10373000FFFFFFC003FFFFFFF8001FFFFFFF0000B8
:103740007FFFFFE00001FFFFF800007FFFFFC000E8
:103750000FFFFFFF0003FFFFFFFC007FFFFFFFE005
:103760000FFFFFFFFF01FFFE07FFF81FFF801FFF96
:1037700083FFF000FFFC3FFE0007FFC7FFC0003FD4
:10378000FE7FFC0003FFEFFF80001FFEFFF800013B
:10379000FFFFFF80001FFFFFF80001FFFFFF800019
:1037A0001FFFFFF80001FFFFFF80001FFFFFF80071
:1037B00001FFFFFF80001FFFFFF80001FFFFFFC0B8
:1037C000003FFF7FFC0003FFE7FFE0007FFE7FFF7D
:1037D000000FFFE3FFF801FFFC3FFFE07FFFC1FFA9
:1037E000FFFFFFF81FFFFFFFFF00FFFFFFFFF007D6
:1037F000FFFFFFFE003FFFFFFFC001FFFFFFF800DC
:1038000007FFFFFE00001FFFFFC000007FFFE0007A
:1038100000007FF0000000007FC00000003FFFE0DC
:10382000000007FFFFC00000FFFFFF00000FFFFFC9
:10383000FE0000FFFFFFF8000FFFFFFFE000FFFFAB
:10384000FFFF800FFFFFFFFE007FFFFFFFF007FF7E
:10385000FFFFFFC07FFF81FFFF03FFF003FFF81FA3
:10386000FF000FFFE1FFF0003FFF0FFF8000FFF8B8
:103870007FF80007FFE7FFC0001FFF3FFE0000FFCB
:10388000F9FFF00007FFEFFF80003FFF7FFC000122
:10389000FFFBFFE0000FFFDFFF00007FFEFFF800EF
:1038A00003FFF7FFC0001FFFBFFE0000FFFFFFF098
:1038B0000007FFF7FFC0003FFFBFFE0003FFFDFF53
:1038C000F8001FFFEFFFE001FFFF3FFF803FFFF920
:1038D000FFFF03FFFFC7FFFFFFFFFE3FFFFFFFFFED
:1038E000F0FFFFFFFFFF83FFFFFFFFFC1FFFFFFF56
:1038F000FFE07FFFFFFFFF01FFFFFFFFF803FFFF78
:10390000CFFFC00FFFFC7FFE001FFF83FFE0001F03
:10391000F01FFF00000000FFF800000007FFC000DC
:1039200000003FFE00000003FFF00000001FFF004A
:10393000000000FFF800F8000FFFC7FFC0007FFC89
:103940003FFE0003FFE0FFF8003FFF07FFC003FF5B
:10395000F03FFF003FFF80FFFE07FFF807FFFFFF7C
:10396000FFC03FFFFFFFFC00FFFFFFFFC003FFFFA3
:10397000FFFC001FFFFFFFE0007FFFFFFC0001FFD7
:10398000FFFFC00007FFFFFC00000FFFFF800000EB
:103990001FFFF00000001FF80000007FBFDFEFF7FF
:1039A000FBFDFE8040201008040201000000000022
:1039B0003E5B4F5B3E3E6B4F6B3E1C3E7C3E1C189D
:1039C0003C7E3C181C577D571C1C5E7F5E1C0018FB
:1039D0003C1800FFE7C3E7FF0018241800FFE7DBEF
:1039E000E7FF30483A060E2629792926407F05054B
:1039F00007407F05253F5A3CE73C5A7F3E1C1C0888
:103A0000081C1C3E7F14227F22145F5F005F5F064C
:103A1000097F017F006689956A606060606094A29A
:103A2000FFA29408047E040810207E201008082AB3
:103A30001C08081C2A08081E101010100C1E0C1E52
:103A40000C30383E3830060E3E0E060000000000F6
:103A500000005F00000007000700147F147F14249B
:103A60002A7F2A1223130864623649562050000820
:103A7000070300001C2241000041221C002A1C7F79
:103A80001C2A08083E080800807030000808080852
:103A900008000060600020100804023E5149453EC5
:103AA00000427F400072494949462141494D33183F
:103AB00014127F1027454545393C4A494931412177
:103AC0001109073649494936464949291E0000145B
:103AD00000000040340000000814224114141414A3
:103AE00014004122140802015909063E415D594E55
:103AF0007C1211127C7F494949363E414141227F67
:103B00004141413E7F494949417F090909013E41FF
:103B10004151737F0808087F00417F4100204041E8
:103B20003F017F081422417F404040407F021C0239
:103B30007F7F0408107F3E4141413E7F090909060D
:103B40003E4151215E7F09192946264949493203E0
:103B5000017F01033F4040403F1F2040201F3F4066
:103B600038403F631408146303047804036159491F
:103B70004D43007F41414102040810200041414172
:103B80007F04020102044040404040000307080057
:103B900020545478407F28444438384444442838DA
:103BA0004444287F385454541800087E090218A44D
:103BB000A49C787F0804047800447D4000204040A5
:103BC0003D007F1028440000417F40007C047804C1
:103BD000787C080404783844444438FC18242418B9
:103BE00018242418FC7C0804040848545454240461
:103BF000043F44243C4040207C1C2040201C3C408E
:103C000030403C44281028444C9090907C446454AC
:103C10004C4400083641000000770000004136089F
:103C20000002010204023C2623263C1EA1A16112CF
:103C30003A4040207A3854545559215555794122FB
:103C400054547842215554784020545579400C1EE4
:103C5000527212395555555939545454593955548D
:103C600054580000457C410002457D420001457CDE
:103C7000407D1211127DF0282528F07C5455450016
:103C80002054547C547C0A097F4932494949323ACC
:103C90004444443A324A4848303A4141217A3A420F
:103CA000402078009DA0A07D3D4242423D3D4040E5
:103CB000403D3C24FF2424487E4943662B2FFC2FA3
:103CC0002BFF0929F620C0887E090320545479412E
:103CD0000000447D413048484A32384040227A0052
:103CE0007A0A0A727D0D19317D2629292F28262965
:103CF00029292630484D40203808080808080808B7
:103D000008382F10C8ACBA2F102834FA00007B00F6
:103D10000008142A142222142A14085500550055AC
:103D2000AA55AA55AAFF55FF55FF000000FF001035
:103D30001010FF00141414FF001010FF00FF1010EB
:103D4000F010F0141414FC001414F700FF0000FF2E
:103D500000FF1414F404FC141417101F10101F108B
:103D60001F1414141F00101010F0000000001F108A
:103D70001010101F10101010F010000000FF101095
:103D800010101010101010FF10000000FF140000A1
:103D9000FF00FF00001F10170000FC04F4141417AC
:103DA00010171414F404F40000FF00F71414141492
:103DB000141414F700F7141414171410101F101F04
:103DC000141414F4141010F010F000001F101F0051
:103DD00000001F14000000FC140000F010F0101090
:103DE000FF10FF141414FF141010101F0000000027
:103DF000F010FFFFFFFFFFF0F0F0F0F0FFFFFF001B
:103E000000000000FFFF0F0F0F0F0F38444438442D
:103E1000FC4A4A4A347E02020606027E027E0263A1
:103E2000554941633844443C04407E201E2006022C
:103E30007E020299A5E7A5991C2A492A1C4C720109
:103E4000724C304A4D4D303048784830BC625A464A
:103E50003D3E494949007E0101017E2A2A2A2A2A3B
:103E600044445F444440514A444040444A51400025
:103E700000FF0103E080FF000008086B6B083612AA
:103E8000362436060F090F0600001818000000102F
:103E900010003040FF0101001F01011E00191D1715
:103EA00012003C3C3C3C00000000002578003A0039
:103EB0003A3A004E657665722D75736564207374A9
:103EC00061636B203E2025642062797465730A006B
:103ED0000A2D2D2D2D2D2D2D2D2D0A0020203C6E4F
:103EE0006F6E653E002920256C75730A002F2575BD
:103EF000202876696120000A526F75746573205B13
:103F00002575206D61785D0A000A000A4E656967B3
:103F100068626F7273205B2575206D61785D0A00A1
:103F20000A000A416464726573736573205B2575CA
:103F3000206D61785D0A002575730A004F6E6C690B
:103F40006E650A00526F7574696E6720456E616216
:103F50006C65640A0052504C20456E61626C656469
:103F60000A0025732025732C206368616E6E656CD2
:103F7000202575202C20636865636B207261746551
:103F800020257520487A20747820706F776572201C
:103F900025750A004555492D3634204D41433A20B8
:103FA00025782D25782D25782D25782D25782D25FA
:103FB000782D25782D25780A0050616E69643A25A0
:103FC000780A0052616E646F6D2045554936342081
:103FD000616464726573732067656E657261746590
:103FE000640A000A2A2A2A2A2A2A2A426F6F746936
:103FF0006E672025732A2A2A2A2A2A2A0A00020101
:10400000081020400804010201040208108040202A
:104010001001020505050505050404040402020259
:104020000202060606060606000000000000260042
:1040300029002C002F0032000000000000000000CA
:10404000000000000000250000002B002E003100C1
:10405000340000000000000000000000000000002C
:10406000240000002A002D00300033000000000072
:104070000000000000002578003A003A3A003A3A81
:10408000464646463A25752E25752E25752E2575EC
:1040900000284E554C4C2049502061646472290020
:0640A00014214950242107
:1040A60011241FBECFEFD1E8DEBFCDBF00E00CBFAD
:1040B6001EE0A0E0B2E0E6E8F5EA01E00BBF02C0D0
:1040C60007900D92A638B107D9F72AE3A6E8BEE015
:1040D60001C01D92A231B207E1F710E2C2E5D0E2BB
:1040E60000E006C021970109802FFE010E94CEC381
:1040F600C035D10780E00807A9F70E94904A0C94C2
:10410600B1D20C940000FFCF61E0809116020E94AC
:10411600684E61E0809116020E94A44E1092B40E81
:1041260066E785EB9EE00E940F25811108C08CE7AB
:1041360094E09F938F930E942ACD0F900F900E9438
:104146007B4160EB74E089E292E00E94994167EB63
:1041560074E08DE492E00E9499416FEB74E087E190
:1041660092E00E94994165EC74E08BE392E00E9434
:1041760099416BEC74E081E792E00E94994165ED0C
:1041860074E08FE592E00E9499416AE072E08DE565
:1041960093E00E9499416FED74E08FE293E00E94F4
:1041A60099416EEE74E08DE193E00E9499416CEFC7
:1041B60074E08BE093E00E9499416DE075E089EF31
:1041C60092E00E9499416BE175E087EE92E00E94D1
:1041D60099416BE275E085ED92E00E9499416AE3B0
:1041E60075E083EC92E00E94994166E475E081E413
:1041F60093E00E94994180E80E946B4264EA75E070
:1042060082EA9EE00E94A02A6FEF82EA9EE00E9468
:10421600432C82EA9EE00E94032B81E080931502E4
:10422600089585EB9EE00E94D22282EA9EE00E94DB
:10423600152A48EC50E068EC70E086E89EE00C94A5
:10424600823386E89EE00E94BF3382EA9EE00C94A9
:10425600132AEF92FF920F931F93CF93DF931F9230
:104266001F92CDB7DEB785EB9EE00E94F4256093E2
:10427600200F7093210F8093220F9093230F85EBCD
:104286009EE00E948B2760931C0F70931D0F8093F6
:104296001E0F90931F0F40E050E56DE774E485EB29
:1042A6009EE00E94E8296093140F7093150F809387
:1042B600160F9093170F85EB9EE00E948B2720E048
:1042C60030E048EC52E40E94FDC56093180F7093ED
:1042D600190F80931A0F90931B0F85EB9EE00E9497
:1042E6008B266093100F7093110F8093120F90938B
:1042F600130F6091200F7091210F8091220F9091E2
:10430600230F08E01FE022E040E00E94A7C9609169
:104316001C0F70911D0F80911E0F90911F0F0EEFB5
:104326001EE022E040E00E94A7C96091140F709140
:10433600150F8091160F9091170F0EEE1EE022E0DA
:1043460040E00E94A7C96091180F7091190F8091E3
:104356001A0F90911B0F06EF1EE022E040E00E942C
:10436600A7C96091100F7091110F8091120F909153
:10437600130F06EE1EE022E040E00E94A7C988E087
:104386009FE09F938F9381E595E09F938F930E9483
:104396002ACD8EEF9EE09F938F938BE595E09F93BA
:1043A6008F930E942ACD8EEE9EE09F938F9386E692
:1043B60095E09F938F930E942ACD86EF9EE09F9370
:1043C6008F9384E795E09F938F930E942ACDC8012F
:1043D6009F930F938DE795E09F938F930E942ACD2D
:1043E600CE0101960E946F4D0FB6F894DEBF0FBE48
:1043F600CDBF80911502813009F488C0823009F062
:104406008EC066E875E082EA9EE00E94A02A6FEF01
:104416007FEF86E89EE00E94173060E070E086E855
:104426009EE00E9466336BE276E086E89EE00E949C
:104436006C334EE150E06EE070E086E89EE00E944C
:10444600603360E276E086E89EE00E948D5062E688
:1044560079E286E89EE00E946C334DE750E06AE020
:1044660070E086E89EE00E9460334091200F5091F4
:10447600210F6091220F7091230F21E030E086E832
:104486009EE00E94535263E171E186E89EE00E943D
:104496006C334FEA50E062E370E086E89EE00E94EB
:1044A60060334091100F5091110F6091120F70916F
:1044B600130F21E030E086E89EE00E9453526EE141
:1044C60076E086E89EE00E94BC5086E89EE00E9468
:1044D600CB3328ECE22EF12C08EC10E020E030E0A3
:1044E60040E050E0BC0182EA9EE00E94972B82EAFF
:1044F6009EE00E94032B60E07EE180E090E00E9457
:104506006E4282EA9EE00E94A82C09C06FEF82EA02
:104516009EE00E94432C82EA9EE00E94032B80913B
:1045260015028F5F833009F482E0809315028AE0DA
:1045360090E00E9466CD0F900F90DF91CF911F9172
:104546000F91FF90EF90089520913315222399F053
:104556004FB7F89420913315213059F42DB3209399
:1045660031153DB320913215209523232DBB4FBF26
:1045760002C0409331158CBD9DBD089580913315C1
:10458600882361F09FB7F8942091331580913115F7
:10459600213019F48DBB9FBF08958FBF0895FC018C
:1045A6008FEF81878287838784870895CF92DF92F2
:1045B600EF92FF920F931F93CF93DF93FC01248515
:1045C6002F3F39F46EBD00000DB407FEFDCF8EB54A
:1045D6002BC0D62F8C0187E0E82EF12CC0E0CC242E
:1045E600C394D12CCC0F60E0F80184850E94A44EC0
:1045F600B6010E2C01C0660F0A94EAF76D23F80186
:1046060082850E94A44E61E0F80184850E94A44E32
:10461600F80183850E94E44E892B09F0C160F1E020
:10462600EF1AF108F8F68C2FDF91CF911F910F91B9
:10463600FF90EF90DF90CF9008950F931F93CF9345
:10464600DF93EC01162F042F89858F3FB9F468811B
:104656008FED94E10E94C24F612F8FED94E10E948D
:10466600794F602F8FED94E10E94794F8FED94E1A1
:10467600DF91CF911F910F910C9446508C858F3FFF
:1046860021F482E591E00E94A72260E089850E94DC
:10469600A44E612F6F77CE010E94D922602FCE01E2
:1046A6000E94D92261E089850E94A44E8C858F3FA5
:1046B60031F4DF91CF911F910F910C94C122DF91BC
:1046C600CF911F910F910895CF92EF920F93CF93B1
:1046D600DF93EC016295660F660F607C477027706A
:1046E600822F880F880F880F262F242B282B2FA781
:1046F600902F9295990F907E88A98F71892B88AB00
:104706008E2D8770880F880F880F9EA5292F207CF5
:104716009C2D9770E22EE82AE92AEEA6402F4770D4
:1047260062EFCE010E9420239EA5492F477060E2CA
:10473600469F90011124892F8695869586958770C8
:1047460068E0869FA0011124422B532B97FB9927E3
:1047560090F9492B65EFCE010E9420239FA5492F92
:10476600477080E2489F90011124892F869586958F
:104776008695877068E0869FA0011124422B532BF3
:104786009295969596959370492B64EFCE01DF919D
:10479600CF910F91EF90CF900C9420231F93CF933E
:1047A600DF93EC01162F89858F3FD1F468818FED59
:1047B60094E10E94C24F612F8FED94E10E94794FE0
:1047C6008FED94E10E94465041E068818FED94E1BF
:1047D6000E9443508FED94E10E94254F182F1EC072
:1047E6008C858F3F21F482E591E00E94A72260E04C
:1047F60089850E94A44E612F6068CE010E94D9224D
:1048060060E0CE010E94D922182F61E089850E94BE
:10481600A44E8C858F3F11F40E94C122812FDF9117
:10482600CF911F91089563EF0E94D123817008955F
:104836000F931F93CF93DF938C01C62FFC018185C5
:104846008F3F29F560818FED94E10E94C24F6C2F56
:104856008FED94E10E94794F8FED94E10E944650CE
:1048660042E0F80160818FED94E10E9443508FEDA4
:1048760094E10E94254FC82F8FED94E10E94254FA9
:1048860020E030E03C2FE901C82BD92B2CC0F801E1
:1048960084858F3F21F482E591E00E94A72260E0A3
:1048A600F80181850E94A44E6C2F6068C8010E94A1
:1048B600D92260E0C8010E94D922C82F60E0C80151
:1048C6000E94D9222C2F30E0322F2227E901C82B53
:1048D60061E0F80181850E94A44EF80184858F3F2E
:1048E60011F40E94C122CE01DF91CF911F910F9149
:1048F60008950E941B2498278927982708951F93B7
:10490600CF93DF93EC0168E80E947C249E878D8715
:104916006AE8CE010E947C24988B8F876CE8CE01D2
:104926000E947C249A8B898B6EE8CE010E947C249F
:104936009C8B8B8B60E9CE010E947C249E8B8D8B99
:1049460062E9CE010E947C24988F8F8B64E9CE01A8
:104956000E947C249A8F898F66E9CE010E947C246E
:104966009C8F8B8F68E9CE010E947C249E8F8D8F51
:104976006AE9CE010E947C2498A38F8F6CE9CE0150
:104986000E947C249AA389A36EE9CE010E947C240E
:104996009CA38BA361EACE010E94D1238DA361EE75
:1049A600CE010E947C249FA38EA363EECE010E94BB
:1049B600D12388A764EECE010E94D123182F65EE7D
:1049C600CE010E94D123282F2F7030E1139FC00102
:1049D6001124822B9AA789A766EECE010E94D123C5
:1049E600182F65EECE010E94D12390E024E0959524
:1049F60087952A95E1F740E1149F90011124822BB7
:104A0600932B9CA78BA767EECE010E94D1238DA77F
:104A1600DF91CF911F910895CF92DF92EF92FF928F
:104A26000F931F93CF93DF93EC01688389858F3FA4
:104A360029F48FED94E10E94B84F18C061E00E94FE
:104A4600A44E61E089850E94684E8C858F3F19F4DB
:104A56000E9455520BC061E00E94684E61E08A8553
:104A66000E94684E60E08B850E94684E60EDCE0124
:104A76000E94D123803629F546EB60EECE010E94D6
:104A860020238CE291E00E94CF52CE010E94162490
:104A9600882319F084E690E0F6CFCE010E948224A6
:104AA600C12CD12CE12CF12C05E010E025E030E002
:104AB60045E050E063E070E0CE010E94672381E0AC
:104AC60001C080E0DF91CF911F910F91FF90EF9091
:104AD600DF90CF900895CF92DF92EF92FF921F93CF
:104AE600CF93DF93EC01162F89858F3FE9F5688117
:104AF6008FED94E10E94C24F612F8FED94E10E94E9
:104B0600794F8FED94E10E94465043E068818FED26
:104B160094E10E9443508FED94E10E94254F6C0171
:104B2600990FEE08FF08FE2CED2CDC2CCC248FED23
:104B360094E10E94254FAC01990F660B770BC42AAE
:104B4600D52AE62AF72AFE2CED2CDC2CCC248FED78
:104B560094E10E94254FAC01990F660B770BC42A8E
:104B6600D52AE62AF72A33C08C858F3F21F482E5C1
:104B760091E00E94A72260E089850E94A44E612FE1
:104B86006068CE010E94D92260E0CE010E94D9223F
:104B9600C82ED12CE12CF12CFE2CED2CDC2CCC24B7
:104BA60060E0CE010E94D922C82AFE2CED2CDC2C16
:104BB600CC2460E0CE010E94D922C82A61E0898512
:104BC6000E94A44E8C858F3F11F40E94C122C7011A
:104BD600B601DF91CF911F91FF90EF90DF90CF90BC
:104BE60008958F929F92AF92BF92CF92DF92EF92EB
:104BF600FF920F931F93CF93DF93EC016AEF0E940E
:104C06006E256115710520E88207910509F46FC0CC
:104C16000D851E8520E030E0C72ED82EE92EFF2414
:104C2600E7FCFA94C01AD10AE20AF30AAB01BC0106
:104C3600E7E07595679557954795EA95D1F7000F83
:104C4600111F221F331FDB01CA01801B910BA20B10
:104C5600B30B9C01AD01AF85B8890E94FEC34B0121
:104C66005C01ABE0B594A79497948794AA95D1F785
:104C7600A7019601C701B6010E9455C39B01AC016D
:104C8600BCE05595479537952795BA95D1F7A989EB
:104C9600BA890E94FEC3AB01BC011EE075956795FB
:104CA600579547951A95D1F79A01AB01280D391DED
:104CB6004A1D5B1D2D833E834F835887A5E0B0E0D8
:104CC6000E94F3C3DC01CB0180589F4FAF4FBF4F0B
:104CD600692F7A2F8B2F992787FD9A950E94ADC64B
:104CE60020E030E048EC52E40E94FDC504C060E0DC
:104CF60070E080EC9FE7DF91CF911F910F91FF90BD
:104D0600EF90DF90CF90BF90AF909F908F900895D7
:104D16004F925F926F927F928F929F92AF92BF92C5
:104D2600CF92DF92EF92FF92CF93DF93EC010E9436
:104D3600F4256DEFCE010E941B24AC0160E070E00B
:104D4600411520E852076105710509F4CEC08D8032
:104D56009E80AF80B8843CE2931A31E0A30AB10882
:104D66003EE0440F551F661F771F3A95D1F789A578
:104D76009AA5092E000CAA0BBB0BE4E1880F991F1C
:104D8600AA1FBB1FEA95D1F76A017B01C81AD90A87
:104D9600EA0AFB0AABA5BCA5A50194010E94FEC3C5
:104DA600C61AD70AE80AF90A40E4D40EE11CF11C37
:104DB600FFE0F594E794D794C794FA95D1F7ADA59B
:104DC6000A2E000CBB0BA50194010E94FEC32B0109
:104DD6003C01AAE07594679457944794AA95D1F735
:104DE600A8A5B0E00E94F3C3DC01CB012BE0B5958A
:104DF600A795979587952A95D1F7BC01CD0170584F
:104E06008F4F9F4FA30192010E9455C3DC01CB0136
:104E16003AE0B595A795979587953A95D1F79C0170
:104E2600AD01405E5F4FAEA1BFA10E94FEC3DC0193
:104E3600CB01905EAF4FBF4FBC01CD014EE09595C3
:104E46008795779567954A95D1F7A70196010E94B0
:104E560055C36B017C015FE09595879577956795BE
:104E66005A95D1F79B01AC010E9455C39B01AC0139
:104E760067E055954795379527956A95D1F7ADA182
:104E8600B0E00E94F3C3DC01CB0174E0B595A795B1
:104E9600979587957A95D1F7A7019601281B390B27
:104EA6004A0B5B0BDA01C90157FF03C080E090E0B3
:104EB600DC0181309105A10539E1B30724F080E0DA
:104EC60090E0A0E0B9E1BC01CD012CE09595879575
:104ED600779567952A95D1F70E94ADC620E030E018
:104EE60040E85AE30E94B0C704C060E070E080EC7E
:104EF6009FE7DF91CF91FF90EF90DF90CF90BF902B
:104F0600AF909F908F907F906F905F904F90089595
:104F16002F923F924F925F926F927F928F929F92C3
:104F2600AF92BF92CF92DF92EF92FF920F931F93B1
:104F3600CF93DF93CDB7DEB7A4970FB6F894DEBF55
:104F46000FBECDBF9CA38BA30E94F42567EF8BA158
:104F56009CA10E946E2569877A878B879C8761153D
:104F660071058048910509F40FC2EBA1FCA185816A
:104F76009681A781B0856C017D01FF0CCC08DC2CE5
:104F860076019C01AD016C2D7C2D8C2D9C2D345F02
:104F960041405109610971098109910929833A83BF
:104FA6004B835C836D837E838F83988759016A0167
:104FB6007B018C010E9406C4288F398F4A8F5B8F34
:104FC6006C8F7D8F8E8F9F8FABA1BCA15D96BC91A0
:104FD600B8A3EBA1FCA1F68DFD87ABA1BCA15B96A6
:104FE600BC91B9A3EBA1FCA1F48DFE87ABA1BCA13A
:104FF6005996BC91BAA3EBA1FCA1F28DFF87ABA198
:10500600BCA15696BC9056975596AC901B2D110F89
:10501600110BC12ED12EE12EF12E012F29813A81BD
:105026004B815C816D817E818F8198850E9406C44B
:105036000CE00E9436C519012A013B014C01EBA187
:10504600FCA1B08CA7881B2D110F110BC12ED12EE0
:10505600E12EF12E012F288D398D4A8D5B8D6C8DB9
:105066007D8D8E8D9F8D0E9406C408E00E944FC5DF
:1050760051016201730184010E946DC570588F4F02
:105086009F4FABA1BCA153962D903C9054975101D4
:10509600C12CD12CE12CF12C00E010E00E9406C4BA
:1050A60001E20E944FC5288B398B4A8B5B8B6C8B38
:1050B6007D8B8E8B9F8BA0E00E947FC509F469C112
:1050C600A8A01D85110F110BBD84C12ED12EE12E76
:1050D600F12E012F288D398D4A8D5B8D6C8D7D8D3E
:1050E6008E8D9F8D0E9406C419012A013B014C0139
:1050F600A9A01E85110F110BBE84C12ED12EE12E43
:10510600F12E012F29813A814B815C816D817E814F
:105116008F8198850E9406C401E10E9436C5590117
:105126006A017B018C019101A201B301C4010E94B5
:105136006DC519012A013B014C0149855A856B85CC
:105146007C8584E075956795579547958A95D1F73F
:1051560080E090E0A0E1B0E0841B950BA60BB70BB6
:105166006C017D01FF0CCC08DC2C76019C01AD01A5
:105176006C2D7C2D8C2D9C2D0FE10E9436C5F901DE
:10518600B42FA52F6D837E838B839C832AA19F8555
:10519600990F990B3F85492F592F692F792F892F01
:1051A60003E20E9436C559016A017B018C01910117
:1051B600A201B301C4010E946DC559016A017B01B8
:1051C6008C019F014B2F5A2F6D817E818B819C8193
:1051D6000E9476C54901542E652EB62FA72FF82FAB
:1051E600E92F03E00E9436C55401C52CD62CEB2EC0
:1051F600FA2E0F2F1E2F0E9476C559016A017B01D8
:10520600782E192F03E00E9436C5072D0E9476C519
:1052160003E00E9436C55401C52CD62CEB2EFA2E7F
:105226000F2F1E2F0E9476C502E00E9436C50F2F53
:105236000E9476C501E00E9436C50F2F0E9476C5F2
:10524600A888B988CA88DB88EC88FD880E891F89FA
:105256000E9461C429833A834B835C836D837E837A
:105266008F8398870DE00E944FC5922E832E742E51
:10527600652E562E472E382E292EEBA1FCA134A1E1
:1052860023A1932F990F990BA92CB82CC72CD62C98
:10529600E52CF42C032D122D492F592F692F792F28
:1052A600892F0E9406C40E9406C409E10E944FC5C8
:1052B60059016A017B018C0129813A814B815C810C
:1052C6006D817E818F8198850E946DC519012A01A5
:1052D6003B014C01ABA1BCA192963C919297919651
:1052E6002C91932F990F990BA980BA80CB80DC80E3
:1052F600ED80FE800F811885492F592F692F792F50
:10530600892F0E9406C403E10E944FC559016A0114
:105316007B018C019101A201B301C4010E946DC5FC
:1053260008E00E944FC5522E632E742E852E962EAF
:10533600F72FE82F492EABA1BCA190963C919097F0
:105346005F962C91932F990F990B492F592F692FFF
:10535600792F892F04E00E9436C559016A017B0125
:105366008C01252D362D472D582D692D7F2F8E2FFB
:10537600942D0E946DC50E94A5C620E030E040E84D
:105386005BE30E94B0C708C060E070E080EC9FE776
:1053960003C060E070E0CB01A4960FB6F894DEBFC0
:1053A6000FBECDBFDF91CF911F910F91FF90EF9070
:1053B600DF90CF90BF90AF909F908F907F906F902F
:1053C6005F904F903F902F900895CF92DF92EF928B
:1053D600FF926A017B010E948B2720E030E048ECB7
:1053E60052E40E94FDC5A70196010E94FDC521E079
:1053F6003EED42E45EE30E941DC89B01AC0160E005
:1054060070E080E89FE30E948BC520E03AE24DE21F
:1054160057E40E94B0C7FF90EF90DF90CF900895B9
:105426000C94B42CCF93DF93EC010E94B32C83E150
:1054360090E09987888784E190E09B878A878AE055
:1054460090E09D878C878EE090E09F878E8788EC22
:1054560090E0A0E0B0E088839983AA83BB838C8325
:105466009D83AE83BF83DF91CF910895CF93C62FDF
:1054760060E070E0FC01828593850E94B52C8C2F3C
:10548600CF910C94BB2CCF93C62F61E070E0FC014A
:10549600828593850E94B52C8C2FCF910C94BB2CC2
:1054A600CF93DF93EC018E859F850E94B72C0197E1
:1054B60029F484E690E00E94B92CF5CFDF91CF91D4
:1054C6000895CF93DF93EC0160E070E088859985BD
:1054D6000E94B52C88EC90E00E94B92C61E070E047
:1054E600888599850E94B52C88EC90E0DF91CF9154
:1054F6000C94B92C0F931F93CF93DF938C01DC018F
:1055060051967C936E93509762E30E94392AC0E0CD
:10551600D0E0D8015096ED91FC915197EC0FFD1F0C
:105526006081C8010E94462A2196CE31D10589F7AD
:10553600DF91CF911F910F910895EF92FF920F93F4
:105546001F93CF93DF93EC017B010E94CC2C8C013F
:10555600892B09F04BC0F98AE88ACE010E94642A99
:1055660061E0CE010E94392A67ECCE010E94462AEC
:1055760060E0CE010E94462A60E0CE010E94462AE3
:105586006CE0CE010E94392A67EDCE010E94462AC0
:1055960066EDCE010E94462A6DE9CE010E94462A9A
:1055A6006CE2CE010E94392A68EACE010E94462AA0
:1055B6006AE3CE010E94392A6AE1CE010E94462A98
:1055C6006BE3CE010E94392A68E0CE010E94462A8A
:1055D60061E1CE010E94392A63E0CE010E94462A8B
:1055E60068897989CE010E947D2A02C00FEF1FEFDC
:1055F600C801DF91CF911F910F91FF90EF90089511
:10560600CF93DF93EC0162E20E94392A67ECCE0168
:105616000E94462A60E2CE010E94392A6FEFCE012F
:105626000E94392ACE01DF91CF910C94532AAF9272
:10563600BF92CF92DF92EF92FF920F931F93CF9379
:10564600DF931F921F92CDB7DEB75C016B01790124
:1056560064E449835A830E94392AB60183E075952A
:1056660067958A95E1F7C5010E94462AB70193E03E
:10567600759567959A95E1F7C5010E94462A65E4F6
:10568600C5010E94392A4981642FC5010E94462A14
:105696005A81652FC5010E94462A602FC5010E94C6
:1056A600462A612FC5010F900F90DF91CF911F9170
:1056B6000F91FF90EF90DF90CF90BF90AF900C943A
:1056C600462AEF92FF920F931F93CF93DF931F9279
:1056D6001F92CDB7DEB77C018B016EE449835A83F6
:1056E6000E94392AB80183E0759567958A95E1F796
:1056F600C7010E94462A6FE4C7010E94392A4981E0
:10570600642FC7010E94462A5A81652FC7010E944D
:10571600462AC7010F900F90DF91CF911F910F91ED
:10572600FF90EF900C94532A2F923F924F925F92E4
:105736006F927F928F929F92AF92BF92CF92DF929B
:10574600EF92FF920F931F93CF93DF93611571052D
:1057560009F483C057FD81C017FD7FC037FD7DC0AA
:10576600F7FC7BC04A01E8EF8E2299243801F8EF56
:105776006F227724A401460D571DFC01A080B1803D
:10578600C280D3801A01052E000C440855082A143D
:105796003B044C045D0414F0E50101C0EA012197C5
:1057A600E20EF31EFC01A480B580C680D7801701E7
:1057B6000F2C000C440855082A143B044C045D04C5
:1057C6002CF07501F1E0EF1AF10803C041E0E41A8C
:1057D600F10859012B016C0187019E01A501B40155
:1057E6000E941A2BA501B401C6010E94642B64E233
:1057F600C6010E94392AC819D909CE01019697FD1A
:105806000796EC0183E0D595C7958A95E1F793E075
:10581600759467949A95E1F70027112704191509DD
:10582600812C912CEA18FB08E814F904B4F0520113
:10583600C501800F911F8C179D073CF4F5016191FE
:105846005F01C6010E94462AF3CFFFEF8F1A9F0A17
:10585600460C571C06191709E7CFDF91CF911F9108
:105866000F91FF90EF90DF90CF90BF90AF909F90F9
:105876008F907F906F905F904F903F902F900895FC
:105886003F924F925F926F927F928F929F92AF92CA
:10589600BF92CF92DF92EF92FF920F931F93CF9317
:1058A600DF93EC01362E0C811D81015011092881F0
:1058B60039812150310940E050E060E070E00E94FB
:1058C6001A2B40E050E060E070E0CE010E94642BAD
:1058D60064E2CE010E94392AC12CD12C760188E0DF
:1058E600882E912CA12CB12C260137018FEFC81AD6
:1058F600D80AE80AF80A688179818A819B81A5011C
:1059060094010E94AFC36C817D818E819F810E942C
:1059160055C346165706680679062CF4632DCE0144
:105926000E94462AE1CFDF91CF911F910F91FF9000
:10593600EF90DF90CF90BF90AF909F908F907F9029
:105946006F905F904F903F900895CF93DF93EC0157
:1059560060E10E94392ACE01DF91CF910C94532A3F
:10596600089508950C94A44E0C94E44E0C94CF52D2
:10597600CF93C82F60E08AE00E94A44ECEBD0000FF
:105986000DB407FEFDCF8EB561E08AE0CF910C9491
:10599600A44E61E08AE00E94684E61E083E10E94C5
:1059A600684E61E084E10E94684E60E08EE00E94ED
:1059B600684E80913315882399F02FB7F89480911B
:1059C6003315813059F48DB3809331159DB3809191
:1059D6003215809589238DBB2FBF02C020933115C8
:1059E60081E58CBD81E08DBD0E94555280E090E03E
:1059F60008952F923F924F925F926F927F928F926D
:105A06009F92AF92BF92CF92DF92EF92FF920F9347
:105A16001F93CF93DF9300D0CDB7DEB74C017B83C6
:105A26006A836A01590117019801241B350B37FF58
:105A360003C0319521953109C5014A815B81841BDB
:105A4600950B97FF03C091958195910951E0598374
:105A56008217930714F019820BC09A2D8B2D5801CB
:105A6600092F182F9A818B81DB82CA82C92ED82EE4
:105A76008A819B81A816B9065CF49C2D8D2D680140
:105A8600092F182F9A818B81BB82AA82A92EB82E44
:105A96002501AA81BB814A1A5B0A38016C187D0868
:105AA60077FE03C0719461947108720157FE03C0BA
:105AB600BFEFEB1AFB0AF594E794C016D1061CF06B
:105AC6000FEF1FEF1FC001E010E01CC0D401ED91E5
:105AD600FC91B9810084F185E02D9101BB23C1F0D1
